:400000000040002011000000311100003111000080B500AF01F090F880B500AF234B12221A6002F025FB224B181C02F0C9F8012002F02EFB0C2002F0F5F81E4B1E4A1A6076
:400040001E4B8022D2051A601D4B1D4A126802210A431A601B4B1C4A1A601C4B1B4A126808218A431A60FA23DB00181C02F026F9174B181C02F050FA164BC022D2001A6057
:40008000154B164A1A60164B802212061A60154B00221A60144B40221A60084B8022D2051A60024B00221A60BD4680BD30001040001BB70004010B40060000800C020B404A
:4000C00078002E407C002E402D3E00006CF02E40DC050000000301400000014040FF008008010B4000010B400401014080B582B000AF72B63C4B00221A60FB1D00221A70CB
:4001000023E0FB1D1A78131C5B009B185B00374A9B183B603B681A78597809020A43997809040A43DB781B061343191C3B681A795B791B0213439BB2081C191C01F080F857
:40014000FB1D1A78FB1D01321A70FB1D1B78012BD7D9274BEE2212061A60264BEE221A60254B992212041A60244B992212041A60234B992212041A60224A224B1B78DBB243
:4001800002210B43DBB213701F4A1F4B1B78DBB23C218B43DBB214210B43DBB21370194A184B1B78DBB216210B43DBB21370174BD82212041A60164B80221A60154B80229A
:4001C000D2031A60144B8022D2011A60134B03221A60134B134A1A60FFF71EFF01F040F8BD4602B080BDC0466CF02E40C8750100000002400003024000500F4020500F400F
:4002000030500F4000700F4001700F400800044000020440080204400C02044000030440080304402400000210B5064C2378002B07D1054B002B02D0044800E000BF012371
:40024000237010BDD810002000000000C075010008B5084B002B03D00748084900E000BF07480368002B00D108BD064B002BFBD09847F9E700000000C0750100DC100020D0
:40028000E00B00200000000080B500AF00F034F806F044F800F0F0F8144B1B78002B12D000F028FF00F0AAFE114B1B78013BDAB20F4B1A700E4B1B78002B04D10C4B20225B
:4002C0001A7000F039F800F001F90A4B1B78002B0BD0084B00221A70002001F087F8002001F042FE062001F027FED1E705110020E50B00200411002080B500AF62B60C4BD9
:40030000181C00F0DDFF01F0C9FB0A4B181C01F077FE002001F02EFF062001F013FF012001F0EAFE062001F0CFFEBD4680BDC046490D00005905000080B500AF424B1B78D6
:40034000002B07D1414B1B78002B03D1404B1B78002B01D000F04EFA3B4B1B78002B22D03C4B1A683C4B1B689A421CD0394B1B68DAB23A4B1A70374B1B681B12DAB2374B17
:400380005A70344B1B681B14DAB2344B9A70314B1B681B16DAB2314BDA702E4B1A682E4B1A6000F0CBFD294B1B78002B22D02C4B1A682C4B1B689A421CD0294B1B68DAB2A3
:4003C000294B1A70264B1B681B12DAB2264B5A70234B1B681B14DAB2234B9A70204B1B681B16DAB2204BDA701D4B1A681D4B1A6000F0C4FD164B1B78002B22D01B4B1A681D
:400400001B4B1B689A421CD0184B1B68DAB2194B1A70164B1B681B12DAB2164B5A70134B1B681B14DAB2134B9A70104B1B681B16DAB2104BDA700D4B1A680D4B1A6000F003
:40044000BDFDBD4680BDC0460711002008110020091100209022002068220020E4220020CC2200206C220020E0220020A422002070220020EC22002080B500AF114B1B78B8
:40048000032B16D1104B1B78013BDAB20E4B1A700D4B1B78002B12D10B4B32221A7001F089FD031C5A425341DBB2181C01F05CFD05E0012001F058FD002001F03DFDBD46F6
:4004C00080BDC04600230020E60B002080B500AF01F010FD1D4B1B78002B05D0002001F031FE002001F0F0FD032005F00FFF031C1A1C174B1A7072B607F09CFE031C1A1CD5
:40050000144B1A70124B1B78032B0AD1114B1B78042B03D00F4B1B78062B08D102F02AF805E00C4B1B78022B01D002F009F862B6064B1B78002B05D0062001F003FE0620E3
:4005400001F0C2FD01F0ECFCBD4680BDE40B0020F4100020F510002080B500AF01F0AAFD01F036FDBD4680BD80B500AF4A4B7720191C0122002301F045FBC04601F066FC65
:40058000021C02231340F9D001F082FC434B7720191C1622002301F0C3FBC04601F056FC021C01231340F9D001F072FC3C4B01221A703A4B1B781B029AB2384B5B789BB2AB
:4005C00013439AB2374B1A80344B9B781B029AB2324BDB789BB213439AB2334B1A802F4B1B791B029AB22D4B5B799BB213439AB22E4B1A80294B9B791B029AB2274BDB79EF
:400600009BB213439BB29AB2294B1A80234B1B7A1B029AB2214B5B7A9BB213439BB29AB2244B1A801D4B9B7A1B029AB21B4BDB7A9BB213439BB29AB21F4B1A80174B1B7BA5
:400640001B029AB2154B5B7B9BB213439AB21B4B1A80124B9B7B1B029AB2104BDB7B9BB213439AB2164B1A800C4B9B7C1B029AB20A4BDB7C9BB213439AB2124B1A80074BBA
:400680001B7D1B029AB2054B5B7D9BB213439AB20D4B1A80BD4680BDF00B002074220020F81000208C220020B4220020B6220020AC220020A02200208E220020C822002091
:4006C000B8220020D42200208A22002080B500AF1E4B7720191C0222002301F093FAC04601F0B4FB021C02231340F9D001F0D0FB052001F0EDFE164B7720191C012200230B
:4007000001F080FAC04601F0A1FB021C02231340F9D001F0BDFB0F4B7720191C0222002301F0FEFAC04601F091FB021C01231340F9D001F0ADFB074B1B781B02054A5278C8
:400740001A43054B1A60BD4680BDC046F40B0020F80B0020FC1000209822002080B500AF204B7720191C0222002301F04BFAC04601F06CFB021C02231340F9D001F088FBFB
:400780001A2001F0A5FE184B7720191C0122002301F038FAC04601F059FB021C02231340F9D001F075FB114B7720191C0322002301F0B6FAC04601F049FB021C01231340E7
:4007C000F9D001F065FB094B1B781A04074B5B781B021343054A927813435A11044B1A60BD4680BDFC0B0020000C002000110020D0220020F8B500AFBB4B1B78002B01D197
:40080000FFF7B2FEFFF762FFFFF7A8FFB74B1B68B74A12889B1AB74A12885343181C05F071FC031C0C1C181C211C0022B24B04F0E1F9031C0C1C181C211C05F02DFC021CE9
:40084000AE4B1A60AE4B1B881BB2181C05F05AFC031C0C1C181C211C0022AA4B04F008FE031C0C1C1D1C261CA74B1B881AB2A34B1B68D318181C05F045FC031C0C1C281CE0
:40088000311C1A1C231C04F0B5F9031C0C1C181C211C05F001FC021C9C4B1A60974B1A689A4B1B68D2189A4B1A60994B1B680833181C05F027FC031C0C1C181C211C0022CE
:4008C000944B04F097F9031C0C1C181C211C05F0E3FB021C904B1A608D4B1B688F4A9A188F4B1A608F4B1B881BB2181C05F00AFC051C0E1C8A4B1A68894B1B685343181C21
:4009000005F000FC031C0C1C181C211C0022864B04F070F9031C0C1C281C311C1A1C231C04F0A6FD031C0C1C181C211C0022754B04F060F9031C0C1C181C211C05F0ACFB9F
:40094000021C6E4B1A60794B1B881AB2744B1B685343181C05F0D6FB031C0C1C181C211C0022684B04F046F9031C0C1C181C211C05F092FB021C654B1A60604B1A68634B04
:400980001B68D2186A4B1A606A4B1B881BB29A00674B1B68D318DB000233002B00DA03339B101A1C644B1A60644B1B881AB25C4B1B685343181C05F0A5FB031C0C1C181C45
:4009C000211C00225E4B04F015F9031C0C1C181C211C05F061FB021C484B1A60594B1B881BB2181C05F08EFB051C0E1C4C4B1A684B4B1B685343181C05F084FB031C0C1CF1
:400A0000181C211C0022484B04F0F4F8031C0C1C281C311C1A1C231C04F02AFD031C0C1C181C211C0022484B04F0E4F8031C0C1C181C211C05F030FB021C344B1A602F4BA2
:400A40001A68324B1B68D3180233181C05F05AFB031C0C1C181C211C00223C4B04F0CAF8031C0C1C181C211C05F016FB021C304B1A60374B1B881A1C2D4B1B68802109026C
:400A80008C4663445343181C05F078FB031C0C1C181C211C0022184B04F0ACF8031C0C1C181C211C03F060FD021C2A4B1A602A4B1B681A1C204B1B68D31A284A5A43284B16
:400AC0001A60274B1B68002B4EDB254B1B685A00204B1B68101C191C03F086FB031C1A1C204B1A604DE0C046F8100020982200208E220020A02200200000E040B0220020F0
:400B0000D42200200000A0408A2200209C220020A8220020000030409022002060F0FFFF94220020B82200200000B040B4220020BC2200208C220020D8220020B622002007
:400B40000000C040C82200200000F04000001040AC220020C0220020D02200206A180000C4220020CC220020664B1A68664B1B68101C191C03F038FB031C5B001A1C634B07
:400B80001A60624B1B68181C05F0BCFA031C0C1C181C211C00225E4B04F02CF8031C0C1C1D1C261C594B1B68181C05F0ABFA031C0C1C181C211C0022554B04F01BF8031CBA
:400BC0000C1C281C311C1A1C231C04F051FC031C0C1C181C211C05F05FFA021C4D4B1A604C4B1B684C4A5343181C05F08BFA031C0C1C181C211C0022484B03F0FBFF031CE3
:400C00000C1C181C211C05F047FA021C414B1A603E4B1B68424A5343181C05F073FA031C0C1C181C211C00223C4B03F0E3FF031C0C1C181C211C05F02FFA021C394B1A60D5
:400C4000324B1B68181C05F05DFA051C0E1C314B1A68344B1B68D318334A94466344181C05F050FA031C0C1C181C211C00222F4B03F0C0FF031C0C1C281C311C1A1C231CFA
:400C800003F090FC031C0C1C181C211C05F004FA021C1E4B1A601D4B1B68181C05F032FA0A1C011C224B5C681B68081C111C1A1C231C03F09FFF031C0C1C191C221C1D4B59
:400CC0001D4C081C111C1A1C231C01F049FF031C0C1C002019491A1C231C04F063FE031C0C1C181C211C0022154B04F0C1FB031C0C1C181C211C05F0CFF9021C114B1A60A6
:400D0000BD46F8BDC4220020C0220020CC22002000007040B0220020DE0B00000000F04043E3FFFF9C220020CF0E000000003040E80B00206C45D9CC955BC83F0000F03F4C
:400D400040A5E540A422002080B582B000AF786039607B68282B26D006D8052B15D0262B18D0012B0DD0BDE0422B31D002D8412B1DD0B7E04C2B00D17EE0712B00D1ADE026
:400D8000B0E05A4B01221A70ACE03B681A78584B1A70A7E0574B1B78042B03D1534B01221A709FE09EE0514B01221A709AE0524A3B68111C1A1C0223081C111C1A1C05F056
:400DC00068FA4E4B01221A704D4B00221A7089E04A4B00221A704B4B00221A704A4B00221A704A4B00221A70494B01221A70494B01221A70484B01221A70484B00221A7098
:400E0000464B1A78454B5A70444B5A78434B9A70424B9A78414BDA70414B00221A70404B1A783F4B5A703E4B5A783D4B9A703C4B9A783B4BDA703B4B00221A70394B1A7880
:400E4000384B5A70374B5A78364B9A70354B9A78344BDA70344B00221A60344B00221A60334B00221A60264B01221A70314B01221A7000F0C3F835E02F4B3A681A602E4B85
:400E80001B689B890F2B08D12B4B1B685B681A781C4B1A701E4B01221A70274B1B689B89132B08D1244B1B685B681A78164B1A70184B01221A70204B1B689B89172B08D184
:400EC0001D4B1B685B681A78104B1A70124B01221A70094B186810F0C7FF03E0154B00221A70C046BD4602B080BDC046041100200611002000230020101100200511002016
:400F0000E40B00200711002008110020091100200A1100200B1100200C110020E4220020E0220020EC220020682200206C22002070220020080C00201411002080B500AF66
:400F40000A4B1B78002B0ED1094B0E221A81084B084A1A60064B04229A80074B044A1868111C10F02BFFBD4680BDC0460611002018110020E42200201011002080B500AF28
:400F80000A4B1B78002B0ED1094B12221A81084B084A1A60064B04229A80074B044A1868111C10F00BFFBD4680BDC0460611002024110020E02200201011002080B500AFFC
:400FC0000A4B1B78002B0ED1094B16221A81084B084A1A60064B04229A80074B044A1868111C10F0EBFEBD4680BDC0460611002030110020EC2200201011002080B500AFC1
:401000002F4B1B78002B1AD02D4B00221A702D4B1A782D4B1A702C4B00225A702B4B0F221A812A4B284A1A60284B02229A80274A274B101C00211A1C002311F04DFC254B64
:401040001B78002B1AD0234B00221A70224B1A78224B1A70214B00225A70214B13221A811F4B1E4A1A601E4B02229A801C4A184B101C00211A1C002311F02EFC194B1B78A0
:40108000002B1AD0174B00221A70174B1A78174B1A70164B00225A70154B17221A81144B124A1A60124B02229A80114A084B101C00211A1C002311F00FFCBD4680BDC04636
:4010C0000A11002007110020F02200203C110020101100200B11002008110020DC220020481100200C11002009110020E82200205411002080B500AF094B1B78002B0DD098
:40110000084B1B78002B09D0064B00221A70064B1A78064B101C191C0DF0D4FDBD4680BD05110020080C0020101100200C0C002080B500AFFEE7C04680B586B000AF224BEC
:401140007B61224B3B61204B7B6135E03B691B68FB603B695B68BB603B699B683B6000237B600CE0FB681A68BB681A60BB680433BB60FB680433FB607B6804337B607A683B
:401180003B689A42EED13B69DB683B6000237B6008E0BB6800221A60BB680433BB607B6804337B607A683B689A42F2D13B6910333B617B69013B7B617B69002BC6D105F022
:4011C00033F8FFF761F8FEE701000000007B010080B582B000AF154B144A126801218A431A6000237B600FE07B68032B04D8104B7A689200D35800E00E4B0F4A796889008C
:401200008B507B6801337B607B682F2BECD9FEF76DFF0A4B00221A60044B044A126801210A431A60BD4602B080BDC04600001040000000003111000000000020C000002003
:4012400080B582B000AF786039607A683B68101C00211A1C05F026F8BD4602B080BDC04680B500AF054B03221A60054B03221A60044B00221A60BD4680BDC0463000304041
:4012800030003140000E3F4080B500AF064B00221A70064B00221A70054B00221A7000F009F8BD4680BDC0460B230020042300200A23002080B500AF00F0D4FBBD4680BD2A
:4012C000B0B594B004AF78603E23FB1800221A802823FA183E4B111C1A1C1423081C111C1A1C04F0D6FF3B4B1B78002B04D1FFF7CBFF384B01221A707B68002B5CD0364BF6
:401300007A681A603E23FB181B88002B29D11023FB181C22BA185A601023FB182022BA181A601023FB1800221A812023FB181B221A802023FB181B225A802023FB18042218
:401340001A711C23FB1800221A703E23FC181023FA180E23FB18101C191C05F0B5F8031C23803E23FB181B88002B29D13E23FC181A481B49AE231A012823FD1805230093A3
:4013800000230193002302932B1C04F0F9FF031C23803E23FB181B88002B11D1114B01221A703E23FC18104B181C1821162211F07BFA031C238003E03E23FB1801221A80DB
:4013C0003E23FB181B88181CBD4610B0B0BDC046D475010060110020F42200201D170000C8000020002300203076010090B585B000AF021CFB1D1A70FB1D1B78022B04D9B7
:401400000E23FB1801221A804BE0294B1B78042B42D1284B1B78DBB21A1C042313403BD1FB1D1B78002B0BD1234B1E221A82224B5B6820221A80204B5B6830225A8010E096
:40144000FB1D1B78012B0CD11B4B96221A821A4B5B68C822D2001A80174B5B688022D2015A80164BFA1D12781A700E23FC18124B181C0FF043FB031C23800E23FB181B88C4
:40148000002B08D10B4B1B78DBB204221343DAB2084B1A7005E004E00E23FB180422FF321A800E23FB181B88181CBD4605B090BD002300200B230020640C00200A23002041
:4014C00080B584B000AF78600A1CFB1C1A700023BB60BB68002B20D07B689A79BB681A700F23FB1800221A7012E00F23FB181B780133BA68D3180F22BA18127879688A5CC6
:401500001A700F23FB181A780F23FB1801321A700F23FB181B78052BE7D9BD4604B080BD80B582B000AF78607B681B789AB27B6801331B789BB21B029BB213439BB2181CA4
:40154000BD4602B080BDC04690B585B000AF78600F23FB1800221A707B689B890B22934237D17B681A1D7B680F217C18101C00211A1C402311F0B0F9031C23700F23FB1828
:401580001B78002B1DD17B685B68181CFFF7C8FF031C1A1C022313409BB2002B08D0104B1B68822251007A68081C111C984708E00B4B1B680622FF32111C7A68081C111C6C
:4015C0009847084B1B78DBB201229343DAB2054B1A700F23FB181B78181CBD4605B090BDF42200200B23002090B585B000AF78600F23FC187B68181CFFF7A6FF031C2370FA
:40160000144B1B78DBB21A1C012313401FD10F23FB181B78002B16D00823FB1812229A707B689A890823FB181A800823FB180F22BA181278DA707B680822BA181868111CAA
:4016400010F07EFB03E07B68186810F00DFCBD4605B090BD0B23002080B582B000AF7860BD4602B080BDC04680B500AF034B00225A70024B00221A70BD4680BD08230020C7
:4016800080B582B000AF7860BD4602B080BDC04680B500AFBD4680BD80B584B000AF78600E23FB1800221A707B689B79002B1CD10F23FB1800221A7012E00F23FB181B7876
:4016C0007A68D35C002B04D00E23FB1801221A700BE00F23FB181A780F23FB1801321A700F23FB181B78052BE7D90E23FB181B78181CBD4604B080BD80B582B000AF021C2A
:40170000BB1D1A80BD4602B080BDC04680B582B000AF7860BD4602B080BDC04680B588B000AF021C3960FB1D1A70BF4B1B78DBB201221343DAB2BC4B1A70FB1D1B78712BDD
:4017400000D956E19A00B94BD3181B689F461023FB1807221A701023FB1800225A701023FB18181C06F098FD1023FB1807221A701023FB1801225A701023FB18181C06F09C
:401780008BFDAB4B1B68181CFFF786FF031E11D0A74B1B68181C04F0C5FDA54B1B68181C0021FFF78DFEA24B1B68181C0121FFF787FE36E09F4B1B781A1C3F231A409E4B20
:4017C0001B78191C3F230B409B011A439B4B1B78191C1F230B401B031A43994B1B78191C7F230B405B041343BB61BB69DAB2954B1A70BB691B0ADAB2924B5A70BB691B0C7A
:40180000DAB2904B9A708F4B181C04F08BFD8D4B181C0021FFF754FE8A4B181C0121FFF74FFE03200FF01AF80C23FB183F221A700C23FB1800225A700C23FB18181C0FF0C6
:401840002BF8814B04221A70D4E03B68181CFFF717FFCFE03B681A787C4B1A70CAE03B687B617B691B78002B18D17B695B78002B0BD1774B0222DA80754B18229A80744B78
:40188000744A1A607B69724A5A60674B1B78DBB201229343DAB2644B1A70ABE0AAE0624B1B78DBB21A1C2023134016D16A4B1B78102B02D1684B0522DA70684B1A78664B01
:4018C000101C191C0FF0DAF8574B1B78DBB201221343DAB2544B1A708CE08BE03B68181CFFF714FF86E03B68181CFFF70FFF564B02221A707EE0544B04221A707AE0524BDB
:401900001B78022B34D0484B1B78DBB21A1C012313402DD0444B1B78DBB21A1C042313400BD0494B03221A703F4B1B78DBB204229343DAB23C4B1A701AE03B4B1B78DBB226
:401940001A1C082313400BD03F4B04221A70364B1B78DBB208229343DAB2334B1A7007E0394B1B78032B03D1374B04221A7041E040E03B681B88181CFFF7BEFE3AE0374A2F
:401980003B68111C1A1C0223081C111C1A1C04F080FC2E4B00221A70FFF77AFE2AE0FFF763FE27E03B685B88162B05D81E23FB183A6852881A8003E01E23FB1817221A80F2
:4019C0003B681E22BA1811881A8800231204120C1B0C1B041343181C10F0BCF90AE03B68181CFFF701FE05E03B68181CFFF734FE00E0C0460C4B1B78DBB21A1C1123134067
:401A00000FD0094B1B78DBB201229343DAB2064B1A70134B1B68FA1D11783A68081C111C9847BD4608B080BD0B23002010780100800C00207CF1FF0F7DF1FF0F7BF1FF0FB4
:401A400078F1FF0F780C0020002300200423002064110020A80B0020700D002008230020F422002080B500AFBD4680BD80B500AF00F052F8BD4680BD80B500AF064B064A34
:401A80001268802109060A431A6000F033F800F039F8BD4680BDC0460000244080B500AF064B1B78002B04D1FFF7E0FF034B01221A70FFF7E1FFBD4680BDC0466C110020FE
:401AC00080B500AF092000F0D1FC00F01FF8074B064A1268520052081A60054B00221A60092000F0D7FCBD4680BDC04600002440880F244080B500AF092000F0A3FCBD46B7
:401B000080BDC04680B500AFBD4680BD80B500AF00F06EF8BD4680BD80B500AF204B00221A60204B204A1A60204B214A1A60214B00221A60204B00221A60204B1C4A1A60E0
:401B40001F4B00221A60092000F090FC0920032100F024FC1B4B0920191C00F0F9FB1A4B00221A60194B00221A60194B00221A60184B1422FF321A60174B00221A60174B10
:401B800000221A60164B10221A70164B00221A80154B00221A60154B00221A60BD4680BD0000244060002440880800800003244007010080040324401003244000022440A8
:401BC00004022440D1260000C80E2440880E2440480F2440080F2440C80F2440880F24400C2300201C2300202C2300201423002080B500AF024B10221A70BD4680BDC0463D
:401C00000C23002080B586B000AFF860B9607A603B6004237B61BB68002B20D0324B1B78DBB2102B0CD1092000F020FC2F4B1B680122134001D0082300E000237B610EE0EE
:401C4000294B1B78DBB2602B09D1294B1B889BB2082293439AB2264B1A8000237B617B69002B38D1204B28221A70224B00221A60214B00221A60214B7A681A60204BBA68F4
:401C80001A603B68DAB21F4B1A70FB685B00FF221340FB60164B1B889BB2022293439AB2134B1A80184B194A1A60194B40221A60184B40221A603B680122134005D000F0CE
:401CC000FFF8154BFA681A6005E0134BFA681A60124B02221A60092000F0B4FB7B69181CBD4606B080BDC0460C230020640024401C23002010230020142300201823002040
:401D00003023002024230020000F244017030000800F2440880F2440400224406800244080B586B000AFF860B9607A603B6004237B61BB68002B20D0374B1B78DBB2102BBE
:401D40000CD1092000F092FB344B1B680122134001D0082300E000237B610EE02E4B1B78DBB2602B09D12E4B1B889BB2082293439AB22B4B1A8000237B617B69002B43D1BA
:401D8000254B29221A70274B00221A60264B7A681A60264BBA681A603B68DAB2244B1A70FB685B00FF22134001221343FB601C4B1B889BB2012293439AB2194B1A801D4BC6
:401DC0001D4A1A60184B1B68072B03D81B4B04221A6009E01A4B1A4A1268802149000A431A60164B08221A603B680122134005D000F066F8134BFA681A6005E0114BFA680E
:401E00001A60114B02221A60092000F01BFB7B69181CBD4606B080BD0C230020640024401C2300202C230020282300202023002024230020000F244017030000C80F24400F
:401E400060002440400224406800244080B582B000AF092000F00AFB0B4B1B889BB27B600A4B1B78DBB220221340DBB2002B03D07B68042213437B60092000F0E3FA7B682F
:401E8000181CBD4602B080BD1C2300200C23002080B582B000AF092000F0E8FA074B1B889BB27B60054B00221A80092000F0CAFA7B68181CBD4602B080BDC0461C230020C9
:401EC00080B582B000AF01237B60084B1B682022134001D0082300E000237A6813437B60034B7A681A60BD4602B080BD640024406800244080B500AF074B1B68DB0FDBB2F0
:401F00001A1C064B1A70054B1B78002B01D0FFF7D7FDBD4680BDC046000024407411002080B500AF034B1B78002B01D0FFF7A4FDBD4680BD7411002080B582B000AF021C27
:401F4000FB1D1A70064B064A126806491140FA1D127892040A431A60BD4602B080BDC04608020440FFFFE3FF80B584B000AF021CFB1D1A700E4B1B68DAB20F23FB184021FA
:401F80008A431A70FB1D1B789B01DBB240221340D9B20F23FB180F22BA1812780A431A70034B0F22BA1812781A60BD4604B080BD0002044080B500AF044B1B684022134013
:401FC0009B09DBB2181CBD4680BDC0460402044080B582B000AF094B1B68DAB2FB1D7F218A431A70054BFA1D12781A60FB1D1B78DB09DBB2181CBD4602B080BD1002044061
:4020000080B582B000AF786000F04AF87B68181C00F008F8032000F011F800F037F8BD4602B080BD80B582B000AF7860024B7A689A64BD4602B080BD0000002090B585B0A5
:4020400000AF021CFB1D1A701623FB600B23FC1800F0BFF8031C23700A4B0A4A12680A491140FA1D1078FA689040021C0A431A600B23FB181B78181C00F0AFF8BD4605B0EE
:4020800090BDC04600E400E0FFFF3FFF80B500AF024B04221A60BD4680BDC04600E100E080B500AF024B04221A60BD4680BDC04680E100E080B500AF024B04221A60BD46C9
:4020C00080BDC04680E200E080B582B000AF021CFB1D1A70064B064A126806491140FA1D127812030A431A60BD4602B080BDC04608030440FF8FFFFF80B584B000AF021C44
:40210000FB1D1A700E4B1B68DAB20F23FB1810218A431A70FB1D1B781B01DBB210221340D9B20F23FB180F22BA1812780A431A70034B0F22BA1812781A60BD4604B080BD72
:402140000003044080B582B000AF021CFB1D1A70064B064A126806491140FA1D127892010A431A60BD4602B080BDC046080304403FFEFFFF80B584B000AF021CFB1D1A7032
:402180000E4B1B68DAB20F23FB1804218A431A70FB1D1B789B00DBB204221340D9B20F23FB180F22BA1812780A431A70034B0F22BA1812781A60BD4604B080BD00030440E6
:4021C0000230800803D00138FDD1C046C046C0467047EFF3108072B6704780F31088704790B585B000AF78600F23FC18FFF7F1FF031C2370094B7A6807210A40D104074AC2
:402200001268074802400A431A600F23FB181B78181CFFF7E2FFBD4605B090BD00010B40FFFFC7FF90B58BB000AF78602723FC18FFF7CFFF031C2370184B1A680C23FB18D2
:402240001A60174B1A680C23FB185A607B68033B144AD35C1A1C0C23FB189A60124B1A680C23FB18DA601C23FB18104A1A600C23FA181C23FB185A600D4B1C22BA181A6034
:402280000C4B0D4A1A600A4B1B682723FB181B78181CFFF7A2FFBD460BB090BD08010B4000010B40D879010030001040B6EA000008001040040010401700008080B584B09A
:4022C00000AF78600023FB60154B154A126801210A431A60134B144A1A60144B134A1268802109020A431A607B68002B12D01023FB600CE0012000F00FF900F019F8031E33
:4023000002D00023FB6005E07B68013B7B607B68002BEFD1FB68181CBD4604B080BDC04660F02E4078002E400220000010002E4080B582B000AF054B1B68012213407B6091
:402340007B68181CBD4602B080BDC0460C002E4080B584B000AF021C3960FB1D1A7080239B05FB60FB1D1B781F2B02D9002000F0A5F8FB1D1B7810339B00FA68D3181B68EF
:40238000BB60FB1D1B7810339B00FA68D3183A681A60BB68181CBD4604B080BD90B587B000AF021CFB1D1A70BB1D0A1C1A70BB1D1B78032B02D9002000F080F8FB1D1B78AB
:4023C0001F2B02D9002000F079F8FB1D1B7803221340DB0006337B611323FC18FFF7F9FE031C2370FB1D1B789B08DBB29B00144A944663441B68FB607B6903229A40131CF6
:40240000DA43FB681340FB60BB1D1A787B699A40131CFA681343FB60FB1D1B789B08DBB29B00074A94466344FA681A601323FB181B78181CFFF7D1FEBD4607B090BDC046FE
:4024400000E400E080B582B000AF021CFB1D1A70054BFA1D12781F210A40012191400A1C1A60BD4602B080BD00E100E080B582B000AF021CFB1D1A70054BFA1D12781F21FA
:402480000A40012191400A1C1A60BD4602B080BD80E100E080B582B000AF021CFB1D1A70054BFA1D12781F210A40012191400A1C1A60BD4602B080BD80E200E080B582B08D
:4024C00000AF021CFB1D1A7001BEBD4602B080BD80B582B000AF786009E00C4B1B68181CFFF76EFE7B680A4A944663447B607A6880231B029A42F0D8064B1B687A68534350
:40250000181CFFF75DFEBD4602B080BD840D00200080FFFF7C0D002080B582B000AF021CBB1D1A80BB1D1B88044A12785343181CFFF746FEBD4602B080BDC046800D0020AA
:4025400090B583B000AFFC1DFFF743FE031C2370074B074A126804218A431A6030BFFB1D1B78181CFFF739FEBD4603B090BDC04610ED00E090B583B000AFFC1DFFF729FE6B
:40258000031C2370114B114A1268520052081A600F4B104A128892B21A600F4B0E4A126804210A431A600D4B1B683B600220FFF717FE30BF094B3A681A60FB1D1B78181C0D
:4025C000FFF70BFEBD4603B090BDC04600000B400C000B4052F1FF0F10ED00E000010B4080B500AF0E4B0E4A126801218A431A600B4B0B4A126802218A431A60094B094A09
:40260000126830218A4310210A431A60054B054A126807218A4301210A431A60BD4680BD00F02E4000FF2E4080B500AF0E4B0E4A126802218A431A600C4B0C4A1268072140
:402640008A4302210A431A60084B084A126830218A4320210A431A60034B034A126801210A431A60BD4680BD00F02E4000FF2E4080B500AFFFF7B4FF044B044A1268802110
:4026800009060A431A60BD4680BDC04600F02E4080B584B000AF78600C4B1B6801221340FB607B68002B02D0012B03D005E0FFF797FF06E0FFF7B8FF03E00020FFF7FEFE2D
:4026C000C046FB68181CBD4604B080BD00F02E4080B582B000AF00233B60C04B1B68002B02D0BE4B1B689847BD4B1B680122134002D0BC4B00221A60BB4B1B78DBB2202243
:402700001340DBB2002B38D0B84B1A6880235B0013400AD0B64B1B889BB2C022920013439AB2B34B1A8001233B60B04B1B68012213400AD0AE4B1B889BB290229200134327
:402740009AB2AB4B1A8001233B603B68002B14D0A54B1B78DBB201221340DBB2002B01D0012300E00223A24A128892B213439AB29F4B1A809C4B00221A709B4B1B78DBB24B
:4027800020221340DBB2002B00D1A4E1974B1B681022134018D0974B10221A60924B1B78DBB201221340DBB2002B01D0012300E002238F4A128892B213439AB28C4B1A8027
:4027C000894B10221A70AAE1874B1B78DBB208221340DBB2002B29D0844B1B68022213400ED0844B02221A60814B1B889BB28822920013439AB27E4B1A8001233B6015E0D9
:40280000794B1B78DBB201221340DBB2002B03D0754B25221A7009E0734B24221A70764B1B68002B02D0754B10221A606E4B1B78DBB204221340DBB2002B00D113E16A4B7A
:402840001B78DBB201221340DBB2002B5BD06C4B1B680822134033D06A4B1A686A4B1B681F211940694B1B68CB18D31A7B607B68082B02D908237B600CE07B68002B09D170
:40288000634B634A126863490A401A6008237B6001233B6010E0604B1A685C4B1B68D2185E4B1B68DBB21370584B1B685A1C574B1A607B68013B7B607B68002BEBD11EE027
:4028C0004F4B1B680422134019D0534B1A684F4B1B68D218514B1B68DBB213704B4B1B685A1C4A4B1A60494B1A68464B1B689A4203D24B4B04221A6001E001233B60494B20
:40290000494A1A60AFE0394B1B680222134032D0384B02221A60454B1B681F221A40434B196880231B020B4001D0012300E00023D2183F4B1B689A1A3D4B1A603C4B1A68E4
:402940003C4B1A602A4B1B889BB28422920013439AB2274B1A80384B374A1268802149020A431A60344B344A126834490A401A6001233B6077E0324B1B681022134067D050
:4029800022E02B4B1A681C4B1B689A421BD21A4B1B685A1E264B1B689A4205D1294B40221A60164B40221A60274A284B1968204B1B68CB181B78DBB213601D4B1B685A1CAD
:4029C0001B4B1A6000E005E0184B1B681F221340082BD6D11B4B10221A6044E0701100208C0E2440880E24400C2300200C0F24401C230020000F244018230020880F244019
:402A0000CC0F244028230020080324402C23002060002440FFFEFFFF202300204003244068002440C00F2440ED0F000008022440102300201423002004022440FFFFFEFFCD
:402A40008C0F2440800F24404002244030230020344B1B684022134005D0334B1A68334B1A6001233B603B68002B58D0304B304A126830490A401A602F4B00221A602F4BD6
:402A800000221A602E4B1B78DBB202221340DBB2002B15D02B4B1B78DBB201221340DBB2002B01D0092300E00A23274A128892B213439AB2244B1A80224B60221A702EE07E
:402AC000224B234A126820210A4001D0182200E010221A6023E01B4B1B78DBB210221340DBB2002B1BD11B4B1A4A1268520052081A60144B10221A700D4B0D4A12681649A1
:402B00000A401A600A4B0A4A126814490A401A60104B104A1268802109060A431A60BD4602B080BD8C0F2440102300201423002060002440FFFEFFFFC80F2440880F244057
:402B4000242300200C2300201C230020680024406400244000002440FF5FFFFFFFFCFFFFF0B546465746C0B48FB01F1C02900391161C00F0A3F9041C0D1CC84B00940195CD
:402B800098461B785BB2013305D0301C391C00F0DFFF002806D1009801990FB00CBC90469A46F0BD0298039900F0D2FF8246002831D1301C391C0022002301F0A7FC002879
:402BC000E9D001230493B64B04AD6B60534600222B62029B039CAB60EC60B24B2E616F61AA61EB6143461B785BB25A1C0ED0022B0CD0281C00F0DAFF002800D180E02B6AD5
:402C0000002B03D003F00AFB2B6A0360AB69EC6900930194BFE7029803990022002301F075FC002822D0301C391C0022002301F06DFC041E2CD001230493994B04AD6B60FF
:402C400000232B62029B039CAB60EC6000230024AB61EC6143461B782E616F615BB2002BC7D000228F4BAA61EB61CFE7201C291C00F064FF8246002847D0201C291C0022A0
:402C8000002301F043FC002866D10094019582E7301C391C00F052FF002800D17BE7301C391C0022002301F037FC002800D172E7012304937A4B04AD6B602C62029B039C70
:402CC000AB60EC6043461B782E616F61002B75D100230024AB61EC61281C00F067FF002872D02B6A002B91D08CE700200021021C0B1C01F07FFFA861E961022C00D078E7B4
:402D000003F08CFA2123036079E70298039900F015FF0028B1D0301C391C00F00FFF0028ABD0291C201C00F013FF04AD002850D1012304935A4B28626B60029B039CAB6075
:402D4000EC6043461C782E616F61002CCDD100230024AB61EC614CE70298039900F0EEFE00940195002800D115E7301C391C00F0E5FE00940195002800D10CE70423049375
:402D8000474B04AD6B6000232B62029B039CAB60EC6000230024AB61EC6143461B782E616F615BB2022B04D0281C00F0FFFE002897D103F033FA2223036092E700203A49F4
:402DC000A861E961022B87D103F028FA2123036087E703230493324B2E616F616B6053462B62029B039CAB60EC6043461B785BB2002B1CD102980399E0222C4B1206AA61A1
:402E0000EB610022002301F087FB002830D143461B785BB2022B05D0281C00F0C7FE002800D0ECE603F0FAF922230360E7E60022029803991E4BAA61EB610022002301F0CE
:402E40006BFB0028E3D000221A4B301C391C02F00FFB061C0F1C00F0B1FE321C3B1C01F055FB0028D3D100220F4BAA61EB61CEE70022104B301C391C02F0FAFA061C0F1C76
:402E800000F09CFE321C3B1C01F040FB0028BED1E022094B1206AA61EB61B8E772100020087A01000000F03F0000F0FFFFFFEF470000F07F0000E03FFFFFEFC7F0B55646A2
:402EC0004D4644465F46F0B41C1C131C67008DB07F0800930194061C0D1C80468946A2463B4331D0614B6C0064089C4228DC25D09F4225DC5D4B9F4200D176E000239B467A
:402F00004B46002B00DA74E0002A2CD1574B9F4200D18AE0564B9F425FD08023DB059A4501D100F0D1FB534B9A451CD14B46002B19DB301C291C00F007FD07E000280CD097
:402F40004D4BE01830430AD1002049490DB03CBC90469946A246AB46F0BDA742CADD474800F026FEF2E7301C291C00F0E3FD0B1C4146021C00291ED0E90F013988465946E2
:402F80004046014366D03E498F4200DC88E03D498F4201DC00F0E0FB3B4B9C4200DC82E35346002B00DC82E338483949021C0B1C02F05EFACAE7002C04D02D48A9008908DB
:402FC0008142D9D15146002900DABBE34946002900DA6FE3101C191CB8E75346002B01DA00F020FC301C291CB0E7002A00D185E7A6E7284B9F422ADC234B9F4200DC83E792
:4030000025493815884201DC00F027FC234B00991B1AD940081C9840904200D074E70123194001335B1A9B466EE7134BE018064300D189E7144B9C4200DC75E35346002B5C
:4030400000DA34E3009B019C181C211C7EE702239B4659E7301C291C321C2B1C02F0A2FC021C0B1C01F0C6FD70E7C0460000F07F0000F03F0000E03F000010C0407A0100B7
:403080000000E0410000F043FFFFEF3F9C7500883CE4377EFFFF3F431304000033040000E94900208C4209DC101C191C0022E74B02F0DEF9021C35200C1C4042E44D21154D
:4030C000AC4661448A462403E24DE349240B824425438C4200DC3CE3E0498C4201DC00F021FC01218C46DE49E2448C46002400216544CB009946161C2F1CDA4B301C4B44B8
:403100001A685B68291C069607970892099302F049FC089A099B061C0F1C0698079901F041FA021C0B1C0020CA4901F063FD021C0B1C301C391C0A920B9302F099F90A1CCE
:40314000011C131C0491059200220292039380236D109B051D43802300201B03EB1819190D1C041C02980399221C2B1C02F080F9021C0B1C301C391C02F014FC089A099BB8
:40318000061C0F1C201C291C02F00CFC021C0B1C0698079902F006FC021C0B1C0298039902F066F9021C0B1C301C391C02F0FAFB0A9A0B9B02F05CF9049A059B069007913A
:4031C000101C191C02F054F9041C0D1C221C2B1C02F04EF9A44A061C0F1C201C291CA34B02F046F9A24AA34B01F0DCF9221C2B1C02F03EF9A04AA14B01F0D4F9221C2B1CE6
:4032000002F036F99E4A9F4B01F0CCF9221C2B1C02F02EF99C4A9D4B01F0C4F9221C2B1C02F026F99A4A9B4B01F0BCF9021C0B1C301C391C02F01CF9049A059B041C0D1C51
:403240000298039901F0AEF9069A079B02F010F9221C2B1C01F0A6F9029B039C061C0F1C1A1C181C211C231C02F002F90A1C011C894B08910992111C002201F093F9321C6D
:403280003B1C01F08FF900240D1C02980399221C2B1C02F0EDF8221C2B1C029003910698079902F0E5F80022069007917A4B201C291C02F077FB089A099B02F073FB021CE9
:4032C0000B1C301C391C02F06DFB049A059B02F0CFF8021C0B1C0698079901F063F9061C0F1C02980399321C3B1C01F05BF90024E022201C1206694B0D1C02F0B9F8684ACC
:4033000006900791674B201C291C02F0B1F8029A039B04900591201C291C02F043FB021C0B1C301C391C02F03DFB5F4A5B4B02F09FF8021C0B1C0498059901F033F95B4B52
:403340004B441A685B6801F02DF9061C50460F1C02F0D8FE041C0D1C06980799544B4B441A685B6804920593321C3B1C01F01AF9049A059B01F016F9221C2B1C01F012F927
:403380000020221C2B1C0290039102F00BFB049A059B02F007FB069A079B02F003FB021C0B1C301C391C02F0FDFA049005915B464246013B134300D0B1E100233D4C06938B
:4033C0000794009B019C0026181C211C231C321C02F0E8FA029A039B02F04AF8049A059B0D1C271C041C0098019902F041F8021C0B1C201C291C01F0D5F8029A039B00901F
:403400000191301C391C02F033F8041C0D1C009801992B1C221C01F0C5F8274B82468946994200DC58E1254B4B44034300D001E200980199224A234B01F0B4F8221C061C94
:403440000F1C2B1C40E0C046FFFF0F000000404301FCFFFF0000F03F8E98030079B60B000000F0FF307A0100EF4E454A287ECA3F65DBC9934A86CD3F01411DA96074D13F1E
:403480004D268F515555D53FFFAB6FDBB66DDB3F033333333333E33F0000084009C7EE3FF5015B14E02F3EBEFD033ADC207A0100107A01000000F0BFFFFF8F40000070BF0A
:4034C000FE822B654715973C5046494602F06AFA021C0B1C301C391C01F032F84E46002800D0A7E1E74B3615F11880235B0398460B41191CE448494484464F007F0DBC44B9
:403500006646E248002230410E1C864340460903090B08434946331CCE0FDD49C91B0841011C704241408946201C291C02F03AFA041C0D1C009801992B1CB144221C01F084
:4035400031F84B461B05984600200022D14B061C0F1C01F08DFF221C029003912B1C301C391C02F01FFA021C0B1C0098019902F019FAC94AC94B01F07BFFC94A041C0D1CAA
:40358000301C391CC74B01F073FF021C0B1C201C291C01F007F8041C0D1C02980399221C2B1C00F0FFFF029A039B061C0F1C02F0F9F9021C0B1C201C291C02F0F3F9321CF0
:4035C000009001913B1C301C391C01F051FF041C0D1CB54AB54B01F04BFFB54AB54B02F0E1F9221C2B1C01F043FFB34AB34B00F0D9FF221C2B1C01F03BFFB14AB14B02F00E
:40360000D1F9221C2B1C01F033FFAF4AAF4B00F0C9FF221C2B1C01F02BFF021C0B1C301C391C02F0BFF9041C0D1C221C2B1C301C391C01F01DFF8023029003910022201C9A
:40364000291CDB0502F0AEF9021C0B1C0298039901F0D0FA009A019B041C0D1C301C391C01F006FF009A019B00F09CFF021C0B1C201C291C02F096F9321C3B1C02F092F916
:403680000B1C021C9249002002F08CF943465C182315002B00DC4FE1021C231C0698079901F0E6FE52E45346002B00DA7CE4002000214BE487498C46594664440C4300D0CB
:4036C000C4E0101C191CC9E4301C291C321C2B1C01F0CEFEFFF73AFC7F4B4E0076089E4200DC17E17D4B4B4403430CD1221C2B1C02F058F9021C0B1C0098019900F016FF01
:40370000002800D1EEE606980799754A754B01F0AFFE734A734B01F0ABFEFFF717FC00236B4C069307944CE65346002BBFDA009B019C80221206181C9446231C6344191C8B
:40374000FFF704FC0020624901F054FA021C0B1C3CE400240021CCE463498C42A3DD5C498C4201DDFFF71CFC101C191C0022584B02F018F9C0225D4BD205041C0D1C01F0D2
:4037800077FE5B4A061C0F1C201C291C594B01F06FFE221C029003912B1C201C291C01F067FE002204900591534B201C291C01F05FFE021C0B1C5148514902F0F3F8221C51
:4037C0002B1C01F055FE021C0B1C00204D4902F0E9F8021C0B1C0498059901F049FE4A4A424B01F045FE021C0B1C0298039902F0D9F8041C0D1C221C2B1C301C391C00F0C7
:40380000D1FE0022101C3B1C321C0290039102F0C9F8021C0B1C201C291C02F0C3F804900591C4E5321C2B1C0020294901F0E2F9FFF78CFB06980799344A354B01F018FEF4
:40384000324A334B01F014FEFFF780FB5946101C01296CD0191CFFF779FB002A01D0FFF782FB3A1C091A0A41131C8B40BB4201D0FFF750FB012313400222D31A9B46FFF770
:4038800049FBC04602FCFFFF01FCFFFFFFFF0F0013040000432EE63FEF39FAFE422EE63F396CA80C615C20BED0A4BE726937663EF16BD2C541BDBB3E2CDE25AF6A56113FA4
:4038C00093BDBE166CC1663F3E5555555555C53F0000F03F000010C0FFCB904000346F3F59F3F8C21F6EA501FEFFEF3F4715F73F44DF5DF80BAE543E0000D03F5555555550
:403900005555D53F0000E03FFE822B659C7500883CE4377E0B4B9E4200DDE3E500239846994611E680240121E402FFF7E2FB802109065918FFF70AFB4A4600F0E1F9021C67
:403940000B1CABE60000E03FF0B556464D4644465F46754BF0B40A1C0E1C191C83B0051C041C3140994200D1B7E0002E00DC93E0311500D1A0E06D4B1203CE188023120BD5
:403980005B031A43F30700D577E0731052009846E30FD318802216210027002564009203A818984202DC85181B1ABF18E00F5B0001391B18640052080029F1D10022019242
:4039C0009446802212062020924609E0AB4247D0E10F5B0001385B186400520800281ED0614689189D42F1DA8E18B446CE0FF607A94656452ED05B1B8C42AD416D425B1B18
:403A0000641A01995B008B469344594601380191E10F4D465B18640052080028E0D1234330D1019B5B0842497A108C466244F90702D5802109060B4341460E05B1181D1C10
:403A40000E1C281C311C03B03CBC90469946A246AB46F0BD6646002ECDDB6E1CB146CAE7A14208D88E18B446CE0FF607564541D099460023C4E71D1CAAE7E30F5200D21863
:403A8000640082E7019B01333AD0019A01239446134063445B08C6E773005B080343D0D00021002E33D1E20A15396405002AFAD080235B031A4226D180200023400352006A
:403AC00001330242FBD001252020ED1AC01A4919251CC5409C402A434DE72A1C331C281C311C01F0C5FC2A1C331C00F05BFD051C0E1CA6E76646002EAFDA0023A9467FE7AF
:403B0000013700238FE7202001250023DFE72A1C331C281C311C01F045FF021C0B1C01F069F8051C0E1C8CE70000F07F01FCFFFF0000E03F49004B08191C7047034B48000E
:403B40009C4640086044C00F7047C046000010800A1C031C024330B50220002A00D130BD80221206914216D00C4A04208C180C4A9442F4D90B4C0C199442F0D90A4A4900A0
:403B8000490803209142EAD9064A00209142E6D158425841E3E7002BE1D0EFE70000F0FFFFFFDF7F0000F07FFFFF0F0000207047002001497047C0460000F87FF0B54746E4
:403BC00080B44B004A4A5B0D9D1882B0071C0C1CCE0F132D39DC002D59DB464F021C2F413B1C0B4003439C46B84667460B1C002F25D043465B081A1C0A4010430027002894
:403C000008D0132D00D16FE099438023DB022B4119430C1C3849F6008E19231C346875683A1C201C291C00F0BDFC0090019100980199221C2B1C01F0B5FE021C0B1C101CBC
:403C4000191C02B004BC9046F0BD332D0BDD0B1C8021021CC9008D42F1D1211C00F0A2FC021C0B1CEBE7254A9D1801235B42EB409C460B1C6146021C0142E0D04B08034247
:403C8000C8D08027FF052F4198430743C2E74C0064080443021C0B1C002CD0D00903090B01434A4211438022090B12035B0C11405B04021C194310480B1CF10041180C6896
:403CC0004D68201C291C00F06DFC0090019100980199221C2B1C01F065FE4B005B08F6071E43021C331CAAE780273F068CE7C04601FCFFFFFFFF0F00487A0100EDFBFFFFE8
:403D0000F8B5314F161C3B1C0B40041C0D1C0A1C1B1520D14B005B0803431BD000222B4B01F0A6FB2A4B041C0D1C0A1C9E4222DB0F403F153B1C2749363B9B198B4211DDDE
:403D4000221C2B1C2448254900F056F8224A234B01F08EFBF8BD22498B4222D01D499B198B42EDDC002B0BDD1E491B050A401343201C191CEEE71C4A1C4B01F079FBE9E741
:403D8000191C353113DA1A4B9E42D9DC221C2B1C1548164900F030F8134A144B01F068FBD8E7291C221C2B1C00F0FCFBD2E70D4936330A401B051343201C191C00220D4B85
:403DC00001F056FBC6E7C0460000F07F00005043B03CFFFFFE0700009C7500883CE4377EFF070000FFFF0F8059F3F8C21F6EA50150C300000000903C30B54A00DB0F520851
:403E0000DB071343191C30BD80B582B000AF78600A1CBB1C1A80BB1C1A887B681A60BD4602B080BD80B582B000AF78600A1CBB1C1A80BB1C1A887B681A60BD4602B080BD8E
:403E400080B584B000AF494B1B78DBB21B02484A1278D2B21343FB60464B1B78DBB21B02454A1278D2B21343BB60BB68434A934207D1FB68072B04D1414BBB600423FB603C
:403E800009E0BA68D4231B019A4204D1FB68042B01D13B4BBB603B4BBA681A603A4BFA681A603A4B1B78DBB21B02394A1278D2B21343FB60FA6880239B019A4202D0FB68F5
:403EC000002B01D1334BFB60334BFA681A60334B1B78DBB21B02324A1278D2B21343FB60FB68304A934206D0FB682F4A934202D0FB68052B01D12D4BFB602D4BFA681A6005
:403F00002C4B1B681B097B602B4B1B68AA2B29D17B68012B26D9214B1B78DBB20E2B21D1264B1B78DBB29BB21B0299B2244B1B78DBB29AB2BB1C0A431A80224BBA1C12883F
:403F40001A60214B1B78DBB29BB21B0299B21F4B1B78DBB29AB23B1C0A431A801C4B3A1C12881A60BD4604B080BDC046D9F0FF0FD8F0FF0FDFF0FF0FDEF0FF0F580B0000DE
:403F8000580D00006C002E4074002E40DBF0FF0FDAF0FF0F0220000078002E40DDF0FF0FDCF0FF0F0F0F000005050000050F000080002E40EC0F00F0E00F00F06DF2FF0F11
:403FC0006CF2FF0F84002E406FF2FF0F6EF2FF0F94002E4080B582B000AF021CBB1D1A80BB1D1B88181CFEF797FABD4602B080BD80B500AF00F0DEF8BD4680BD80B500AFE9
:4040000000F0E2F8BD4680BD80B500AF00F0DCF8044B181C00F09CF8032000F0A5F8BD4680BDC046DD41000080B500AF024B181C00F07CF8BD4680BDDD41000080B500AFA8
:404040000223FF33181CBD4680BDC04680B582B000AF78602B23181CBD4602B080BDC04680B582B000AF78602B23181CBD4602B080BDC04680B582B000AF78602B23181C2F
:40408000BD4602B080BDC04680B582B000AF78602B23181CBD4602B080BDC04680B582B000AF78602B23181CBD4602B080BDC04680B582B000AF78602B23181CBD4602B013
:4040C00080BDC04680B582B000AF78602B23181CBD4602B080BDC04680B582B000AF78602B23181CBD4602B080BDC04680B500AF2B23181CBD4680BD80B582B000AF021CD3
:40410000FB1D1A702B23181CBD4602B080BDC04680B582B000AF786039602B23181CBD4602B080BD80B500AFBD4680BD80B582B000AF786000F048F87B68181C00F008F81F
:40414000032000F011F800F035F8BD4602B080BD80B582B000AF7860024B7A681A67BD4602B080BD0000002090B585B000AF021CFB1D1A700623FB600B23FC18FEF729F89F
:40418000031C23700A4B0A4A1268C0218A43111CFA1D1078FA689040021C0A431A600B23FB181B78181CFEF718F8BD4605B090BD0CE400E080B500AF024B802252011A6017
:4041C000BD4680BD00E100E080B500AF024B802252011A60BD4680BD80E100E080B500AF13F0DAF9BD4680BD002243088B4274D303098B425FD3030A8B4244D3030B8B424B
:4042000028D3030C8B420DD3FF22090212BA030C8B4202D31212090265D0030B8B4219D300E0090AC30B8B4201D3CB03C01A5241830B8B4201D38B03C01A5241430B8B4211
:4042400001D34B03C01A5241030B8B4201D30B03C01A5241C30A8B4201D3CB02C01A5241830A8B4201D38B02C01A5241430A8B4201D34B02C01A5241030A8B4201D30B0252
:40428000C01A5241CDD2C3098B4201D3CB01C01A524183098B4201D38B01C01A524143098B4201D34B01C01A524103098B4201D30B01C01A5241C3088B4201D3CB00C01A49
:4042C000524183088B4201D38B00C01A524143088B4201D34B00C01A5241411A00D20146524110467047FFE701B5002000F0FCF802BDC0460029F7D003B5FFF775FF0EBC0E
:404300004243891A1847C04603460B437FD4002243088B4274D303098B425FD3030A8B4244D3030B8B4228D3030C8B420DD3FF22090212BA030C8B4202D31212090265D0EA
:40434000030B8B4219D300E0090AC30B8B4201D3CB03C01A5241830B8B4201D38B03C01A5241430B8B4201D34B03C01A5241030B8B4201D30B03C01A5241C30A8B4201D36D
:40438000CB02C01A5241830A8B4201D38B02C01A5241430A8B4201D34B02C01A5241030A8B4201D30B02C01A5241CDD2C3098B4201D3CB01C01A524183098B4201D38B01CD
:4043C000C01A524143098B4201D34B01C01A524103098B4201D30B01C01A5241C3088B4201D3CB00C01A524183088B4201D38B00C01A524143088B4201D34B00C01A524118
:40440000411A00D201465241104670475DE0CA0F00D04942031000D34042534000229C4603098B422DD3030A8B4212D3FC22890112BA030A8B420CD3890192118B4208D35E
:40444000890192118B4204D389013AD0921100E08909C3098B4201D3CB01C01A524183098B4201D38B01C01A524143098B4201D34B01C01A524103098B4201D30B01C01ABD
:404480005241C3088B4201D3CB00C01A524183088B4201D38B00C01A5241D9D243088B4201D34B00C01A5241411A00D20146634652415B10104601D34042002B00D5494200
:4044C000704763465B1000D3404201B5002000F00BF802BD0029F8D003B5FFF715FF0EBC4243891A1847C0467047C0468446101C62468C46191C634600E0C0461FB500F055
:4045000051FF002801D40021C8421FBD10B500F095FE4042013010BD10B500F043FF002801DB002010BD012010BDC04610B500F039FF002801DD002010BD012010BDC046AF
:4045400010B500F0BFFE002801DC002010BD012010BDC04610B500F0B5FE002801DA002010BD012010BDC04638B500220C4B041C0D1CFFF7EFFF002804D1201C291C01F095
:404580008BFD38BD064B0022201C291C01F00AFA01F082FD80231B069C466044F1E7C0460000E041F0B5454657464E4694464C000A03C90FE0B488460E1C1903470FC500AD
:4045C000480A6146490F01436046520A1743C0005A00640D520DDB0F8446984500D1A7E0A01A002800DC01E1002A3DD163460B4300D0D4E06B0700D188E00F232B40042B2D
:4046000000D183E02A1DAA42AD4180236D427F191B043B404646151C002B00D17CE0CC4B01349C4200D1FDE03A1CCA4BED081A405007640552020543120B640D00211203DA
:404640000B0D1B056405120B1A436308C24CF60714401C43640064083443281C211C1CBC90469946A246F0BDB94B9C42C2D080231B041943382800DDECE01F2800DD21E14B
:4046800020220E1C6346121A9640C340334366469640321C561EB24113430A1CC240EB1A9D42B6411D1CBA1A7642971B3B0200D497E07A02560A002E00D1B6E0301C01F02D
:4046C0008FFD031C083B1F2B00DDB7E09E40371C28262A1C361AF240161C9D403E439C4200DDB2E01C1B621C1F2A00DDD8E01F23291C1C1B331CA540A340D1406C1EA54101
:40470000D64019430D43371C002473E780231B043B40464600D082E78D4BED0878070543FA089C4232D012036405120B640D85E7A31A002B00DC94E0002A3CD0844A9442E4
:4047400000D157E7802212041143382B00DC05E163461943481E81410022C8B24019A8429B41051CD2195B42D7183B0239D5784B01349C4200D14CE10120764A6B083A408C
:4047800028401843D5070543570833E72B1C134348D080231B031A431203120B4EE70138002878D16346EE1AB5429B417A1A5B42D71A351C7AE7021C0A4300D11AE7013BE4
:4047C000002B00D0F2E04019A8429B41CA195B42D718051CC9E7131C334300D118E1171C351C46466B0700D007E795E700287AD1621C5205520D012A00DCFBE06246AA1A6D
:404800009542B6419146781A7242861A320200D493E06246551BAC458041CF1B40423E1A984648E70022002508E7281C01F0D8FC2030031C083B1F2B00DC47E7283885406D
:404840002E1C00259C4200DC4CE7424AE41A1640371CCFE6634619434B1E99410022CBB21DE7002B00D0F2E0601C43055B0D012B00DCA4E0364B984200D121E163465C1938
:40488000AC429B41CF195B42FA186408D50725435708041CAEE62E4B9C4200D0EAE6A9E6211C331C1F39CB40191C202A00D182E03F231C1BA64035436E1EB54100270D43BD
:4048C00000248EE7031C0E1C203BDE40202874D040231B1A99400B1C62461343591E8B4100223343DBE6002C50D0194CA24200D1A8E08024240440422743382800DDD9E003
:404900001F2800DD39E120243E1C241AA640B0462E1CA146C640444626434C46A5406C1EA541C74035436046451BCF1BAC45894149427F1A141C9846B8E64B464D463343DC
:4049400000D0B8E60026002700240025E4E6C046FF070000FFFF7FFFFFFF0F801F2B5BDC2022081CD21A9040814660469246D8404A4610438146524660469040021C501E10
:404980008241484610430A1CDA40E7E63C1C2C4358D0C043002851D16046451BAC458041CF1B40423F1A141C98467FE68F4A944200D0CAE61EE600267DE700238CE73B1C70
:4049C0002B43002C00D0BDE0002B00D1F5E063460B4300D10EE663465B19AB428041CA19404217183A0200D4FCE0814A1D1C17400134FFE53A1C2A43002C51D1002A00D059
:404A000085E062460A4303D00F1C65469846F1E50026002700257FE6181C0A1C2038C240202B00D1A7E04020C01A8140081C63461843411E8841104300228FE66B4CA242C1
:404A400000D05AE70F1C6546141C9846D2E5002C3AD1381C284371D0DB43002B18D0634882426BD0382B00DD9DE01F2B00DDA7E020203C1CC01A8440A1462C1C8246DC40C4
:404A80004846044350468540681E8541DF402543654465459B417F185B42FF18141C64E6002A19D162460A4377D00F1C654698464E4C9FE53D436F1EBD410027EDB232E7F3
:404AC000041C0027002527E64848824236D0802000045B420743C5E762460A4349D08024ED087807FA0824032843224209D0CE08264206D162464F07381CD2081043984643
:404B0000321CD200470F1743C500384C72E562460A4300D16EE56246AE1AB5429241781A5242821A100200D455E66246551BAC458041CA1B4042171A98465BE50F1C654679
:404B4000141C57E5002B34D063460B4311D08024ED087807FA08240328432242D1D0CB082342CED162464F07381CD20810431A1CC7E71E4C3EE5002059E7041C3E1C203C14
:404B8000E640341C20282BD04026301A87403D436F1EBD4100272543C5E680270026FF03124C0025B8E53D436F1EBD410027EDB26EE70F1C65460D4C1CE50F1C654619E567
:404BC0001C1C381C203CE040041C202B0CD04020C31A9F403D436F1EBD410027254357E70027D4E71D1CFCE50027F3E7FF070000FFFF7FFFF0B55F4656464D464446F0B44C
:404C00000F0387B098464D003B0BCC0F061C924681469B466D0D01946BD0664B9D4235D080275B467F031F43F3009946624BFF00400F9C4607430023BB46002665440093B3
:404C4000424617035000D20F53463F0B400D904600D172E0574A904267D080235B031F435346554A5B0FFF001F43944653460021DB0060444246624092462D1A0E430F2E3E
:404C800000D9A1E04D48B600805987465B461E4300D076E000239B469946023308260093CEE799464346BB4601930091009B022B6BD1019B9A460021534601220027894612
:404CC0001A403C4B00213F030C0D24053F0B27433B4C1B0527401F437F00D2077F0817434846391C07B03CBC90469946A246AB46F0BD03433ED05B46002B00D19CE15846F8
:404D000001F06EFA2823311C1B1A021C5F46D940083A97400B1C96403B439B46B1460023284D00262D1A00938AE7524603213A43A0D10027002302219CE752463A4315D068
:404D4000002F00D185E1381C01F04AFA021C28215046891A131CC8405146083B99409F400B1C074317480021801A83E70027002301217FE700239B46994601330426009340
:404D80005EE703230C2600935AE7032B00D13CE2012B00D0BFE11A1C019B1A4000210023002789468EE700238027994600223F03004B87E7FF07000001FCFFFF587A010054
:404DC000FFFF0F800DFCFFFFBB4500D951E100D14CE14A46039200225C469046013D180E3F0238431B020193030C994603041B0C4946061C201C1F1C0093FFF7F5F9021CAD
:404E00007A4302904946201C171CFFF773FA039B09041B0C19438F420CD9029B8919013B8E4200D952E18F4200D84FE1029B8919023B0293CC1B201C4946FFF7D5F9009F88
:404E4000834647434946201CFFF754FA039A0B041404240C23439F420DD95A469B19013A9E4200D930E19F4200D82DE10222524294469B19E344029ADB1B17045A463A4358
:404E80009346019C170C220C101C04925A4611042204120C141C090C7C4305924A43414347436118100C09188C4203D980204002844667440C0C12040804120C3C1981183D
:404EC000A34200D2E5E000D1DFE01F1B43465C1AA04592415242BF1AB74200D10EE1381C4946FFF781F9009B029043434946381C9846FFF7FFF9230C0F041F43B8450CD954
:404F0000029BBF19013BBE4200D9FBE0B84500D8F8E0029BBF19023B02934346FF1A4946381CFFF761F9009B039043434946381C9846FFF7DFF924040904240C214388456A
:404F40000CD9039B8919013B8E4200D9DCE0884500D8D9E0039B8919023B03934346C91A029B039A1B04059C1A43100C13049146221C049F1B0C5A4344437B437843E3188D
:404F8000170CDB199C4203D980246402A44660441C0C12041B04120C00199B18814200D296E000D1FCE04A4601231A4391469B4BEB18002B00DC99E04A4652070AD00F2244
:404FC00049460A40042A05D00431494592418946524293445A46D20106D55A46904B1A4080239346DB00EB188E4A934200DD62E64A465946D208490711435A468946570241
:40500000514601225B053F0B5B0D0A405AE680205A460003024208D0074206D107433F0399463F0B4246804B4CE65F4607433F033F0B221C7C4B45E601F0D2F8031C20308C
:40504000272800DC5EE6083B9E400023B346994665E6504601F0C4F8021C2032272A00DC75E657460838874000237BE6994500D2AFE65A46594654084A46C8075208024319
:4050800003924A46D2079046A9E60027884500D31CE7019F5A46BC46E044B845BF417F42BF19FF18013ABE4206D2BC425FD800D19FE03F1B934609E7B742FAD1019B43450D
:4050C000F3D9371B934601E79346D4E60293B1E64A468919013A8E4218D99146814200D061E7019A9A4200D05DE760E74F4F7F1B382F13DD012253461A404FE601235B42C5
:40510000994654E7029308E7039327E788423CD874D0914647E7019B9A4648E71F2F44DC434B4A469C465B466544FA40AB4013434A46AA40151C6A1E95415A46FA402B43D7
:40514000171C5A0709D00F221A40042A05D01A1D9A429B415B42FF18131C3A023ED55346012200211A40002701238946AAE502235B429C46019AE3449446E04490459B411E
:405180005B429B19DF193F1BA0E6019F4A467C00BC42BF417F42BF19023AC91901949CE7002B95D1002201929BE75A46214B5B1BDA40202F27D0204B9C465B466544AB4021
:4051C00049460B43591E8B411343072200271A4007D00F2200271A40042AB8D17A077F023F0BDB0813439946012253461A40002368E54145BBD89346002767E6019C9C4284
:40520000C3D391466DE70023DAE780275B463F031F433F033F0B019A034B53E5FF030000FFFFFFFEFE070000FF07000002FCFFFF1E040000E2FBFFFF3E040000F0B55F46A3
:405240004D4644465646F0B41F035C00DB0F99461B4B0E034D00C90F8446360B6D0D8B4690463F0B640D9D420CD0154B9C4210D00123A54214D0181C3CBC90469946A24676
:40528000AB46F0BD311C01230143F4D10C4B9C42EED13A430123002AEDD10123A542EAD1BE42E8D1C445E6D1CB4506D0002DE2D13043031C581E8341DDE70023DBE7C046D9
:4052C000FF070000F0B5574645464E46E0B40F034E00C90F8A4632491D035C0084463F0B760D90462D0B640DDB0F8E420FD08C4239D0002E10D13843414241418946002CA4
:4053000027D12A4325D1002000290ED108E0391C01432ED1B44226D0002C0BD09A450DD05346594201231943081C1CBC90469946A246F0BD2A43F3D09A45F1D1A642EFDC3D
:405340001ADA504641424841012341421943081CEBE74A46002AE1D058425841012241421143081CE1E7291C114302D1002EC2D0D4E702204042D8E7AF42D1D809D000203D
:40538000AF42D2D2504641424841012340421843CBE7C445C4D80020C445F3D3C5E7C046FF070000F0B55F464D46444656468046F0B4061C0803000B84462C484C001F0366
:4053C0005D00C90F640D8B4691463F0B6D0DDB0F844212D0854225D0002C14D161460E4370424641002D35D0002E21D058425841012143420B43181C0EE061460220314333
:405400000AD1A5420ED0002D12D13A4310D15B46594201231943081C3CBC90469946A246AB46F0BD391C02201143F5D1002CD5D09B45ECD1AC42EADC05DBBC45E7D80FD019
:405440000020BC45E8D2584641424841414201200843E1E73A43C7D10020002EDCD1D6E7C845D4D80020C845EDD3D5E7FF070000F0B55F4656464D464446F0B4051C061CD1
:40548000080387B099464F00030BCC0F92469B467F0D019467D06C4B9F4236D080205B4640031843C0006B0F1843684B83469C4600239846EE00674400934B4649461D03A5
:4054C000C90F5B0052462D0B5B0D894600D16EE05D498B4264D080205C4940038C4600210543ED00500F0543D20063444846FF187B1C9A46009B604002900B430F2B00D992
:40550000ACE053489B00C3589F465B461D4300D082E00823009300239B46023300269846CBE7029B01934346022B59D1012400250026019B1C40444B00212D030A0D120542
:405540002D0B1543434A1B0515401D436D00E4076D082543301C291C07B03CBC90469946A246AB46F0BD2B434ED05B46002B00D185E1584600F034FE021C2823291C9B1AD7
:40558000161C5846D940083EB0400B1CB54003439B462E1C0023304F0093BF1A98468CE7514629432ED10025002202219EE75146294323D0002D00D154E1281C00F010FE84
:4055C000031C28215046C91A1A1CC8405146083A914095400A1C05431F480021C31A85E7032B00D1C2E1012B00D06DE14446019B00251C40E4B2002300269DE70025002291
:40560000012173E7032171E70423009300239B4601330026984650E70C230093093B98464BE7802500242D030026074B84E74B46AB46161C0193884675E7029BAB46161C21
:40564000019388466FE7C046FF07000001FCFFFF987A0100FFFF0F800DFCFFFF330C3604360C9C46331C140C1204120C53439846634653439946634663430193331C414639
:405680006343090C4B445B18994505D9802040028146019949440191190C039141460904090C1B045B1804932B0C9846331C2D04290C4B43604600934346654658435E4383
:4056C000009B4D431B0C9946AE194E448446B54203D980235B029946CC44350C2B1C0398634484460593009B36041B041B0CF3189C446046039058460504060C280C844672
:405700005043351C81466046654344434846000C8346724314195C44A24203D98022520293465D44220CAD184A461204120C24044046A41862464A43714346436046009605
:40574000464670438046100C84468844E044414505D9802149028C46009961440091019803998446614499429B415B4299460598434684461204120C1B049B1863449C4607
:40578000AB4683429B4140460A19CC44A2428941E344CC45B6415C46000C8046494276425B426418334398448C428941AB459B4149425B4219430D1C009B4544EE187602EC
:4057C000E50D2E43B346049B56021E43731E9E415B46D20D324366021643DB010AD50123334076081E435B46DB071E435B465B089B465746634BFB18002B5ADD720709D0C3
:405800000F223240042A05D0321DB242B6417642B344161C5A46D20106D55A465A4B1A4080239346DB00FB18584A934234DD0124029B00251C400026554B7DE680205B461B
:405840000003034208D0054206D105432D032D0B4C46161C4E4B6FE65D4605432D032D0B4B4B69E6504600F0BBFC031C2033272B00DCA6E65546083885400022ACE6281C4F
:4058800000F0AEFC021C2032272A00DC75E6083885400026AB467DE65A46F608520716435A4601245502029A5B052D0B5B0D144042E6384DED1B382D0ADD0124029B002593
:4058C0001C400026002337E6019B5746029391E71F2D25DC304B321C9C466744BE405B46BB40371CEA407E1EB74113433B431E1C5B46EB401D1C730709D00F233340042B18
:4059000005D0331DB342B6417642AD191E1C2B0220D50124029B00251C40002601230BE65A461E4BDB1BDA40131C202D1CD01C4A94465A466744BA40171C3E43721E9641DD
:405940001E4307230025334007D00F2300253340042BD6D16B076D022D0B0124F6081E43029B1C400023E7E50027E6E780255B4601242D031D43019B2D0323401C1C2D0B7A
:40598000034BD9E5FF030000FFFFFFFEFE070000FF07000002FCFFFF1E040000E2FBFFFF3E040000F0B54D4644465F465646F0B40E1C111C3203520A470F1743C5001A0377
:4059C0005800DB0F9946520A4B0F83B01A43CB000193CF4B7400F60F640DB046400D984200D1E8E00123494659400B1C9E4200D1B1E0261A002E00DC1CE1002842D1131CC1
:405A000001990B4300D0E6E06B0700D18EE00F232B40042B00D189E02A1DAA42AD418023012641466D427F191B043B400E40151C002B00D183E0B64B01349C4200D116E124
:405A40003A1CB44BED081A405007640552020543120B640D002112030B0D1B056405120B1A436308AC4CF60714401C43640064083443281C211C03B03CBC90469946A24624
:405A8000AB46F0BDA24B9C42BED080231B041A43382E00DD03E11F2E00DD3FE12020831B9946131C49468B409C46019B6046F34003430198F2408840011C481E81410B4356
:405AC000EB1A9D4280411D1CBA1A4042171A3B0200D4A8E07A02560A002E00D1CAE0301C00F07EFB031C083B1F2B00DDCBE02822291C121AD1409E400A1C9D4032439C423A
:405B000000DDC8E01C1B671C1F2F00DDEDE01F23291C1C1B131CA540A340F9406C1EA541FA4019430D43171C00246DE78023012642461B043B401640002B00D07BE7744BE1
:405B4000ED0878070543FA089C423BD012036405120B640D7EE7231A9A46002B00DCA5E0002844D06A48844200D14DE78020000402435346382B00DC1CE1019B1A43511E85
:405B80008A41D1B200224919A94280410D1CD219404217183B0246D55D4B01349C4200D169E101205B4A6B083A4028401843D5070543570828E7131C01990B4300D111E78C
:405BC0004B4613E72B1C134351D080231B031A431203120B3EE7013E002E00D080E0691A8D429B41BA1A5B42D71A0D1C6FE7101C019B184300D107E701235B429C46E24490
:405C00005346002B00D002E1019BD2195919A9429B415B42D7180D1CBCE76346034300D128E1071C65466B0700D0F0E6012643461E4084E7002E00D081E0601C4005400D40
:405C4000012800DC07E10199681A84466545B641B81A7642861B300200D4A1E08C464D1BAC458941D21B4942561A984634E700220025EFE6281C00F0B3FA2030031C083B79
:405C80001F2B00DC33E7021C283A95402A1C00259C4200DC36E71F4FE41A1740B4E6019B1A43511E8A41D3B2002209E7002B00D001E1601C43055B0D012B00DCB0E0144BE6
:405CC000984200D11EE1019BD2195919A9429B415B42D2184908D5070D435708041C93E60B4B9C4200D0D3E68EE6211C131C1F39CB40191C202F00D18EE03F231C1BA24000
:405D000015436A1E954100270D4300248BE7C046FF070000FFFF7FFFFFFF0F80331C101C203BD840202E79D040239B1B9A40131C019A1343591E8B4100220343C0E6002C76
:405D400053D0C74CA04200D1B0E0802471428946240427434946382900DDCDE01F2900DD59E120243E1C611A8E408A46B04649462E1CCE405146B4468D4064464646494662
:405D800026436C1EA541CF4035430199D71B8C464D1BAC4592415242BF1A041C984696E663466546334300D096E60026002700240025C4E61F2B61DC2020C31A9B46131C08
:405DC00059468B4051469946019BCB409C464B46604603439C465B46019999406346481E814119435346DA40CDE63C1C2C435DD0F1438946002955D10199D21B8C464D1B2D
:405E0000AC4589414942571A041C98465FE69448844200D0ADE6F7E5002271E7002387E73B1C2B43002C00D0DAE0002B00D113E1131C01990B4300D1E6E54919A9429B4135
:405E4000D2195B42D7183B0200D421E1854B0D1C1F40041CD8E5381C2843002C40D1002800D083E0101C0199084303D0171C0D1C9846C9E500260027002560E65046131CC3
:405E80002038C340181C5346202B00D1C1E0402351465B1A9A40019911434A1E91410022014370E66E4CA04200D053E7171C019D041C9846A8E5002C28D13C1C2C4300D111
:405EC0008AE0DB439A46002B00D082E0019BD2199C4665449D42894149425718041C59E600285BD1101C0199084300D1A4E0171C0D1C98465A4C87E53D436F1EBD41002791
:405F0000EDB242E7041C0027002518E6544CA04262D0534680245B429A46240427435346382B00DD8EE01F2B00DD9DE02024E31A9B463B1C59468B40514699462B1CCB4099
:405F40009C464B46644623439C465B469D4063466C1EA541CF401D43019BBF189C4665449D4292415242BF18041C13E6101C0199084300D148E5681A844685428041BE1AC7
:405F80004042301A060200D447E68C464D1BAC458941D21B4942571A984635E5101C0199084334D080247807ED08FF0824032843274208D0D608264205D1C90852070A439C
:405FC000101C371C9846FF00420F1743C500244C1AE5234CA042A2D1171C019D041C13E5002B35D0131C01990B4310D080247807ED08FF08240328432742E4D0D308234284
:40600000E1D1C90852070A43101C1F1CDBE7144CFAE400223FE74C463E1C203CE6404946341C202932D04026761AB7403D436F1EBD4100272543A8E680270026FF03084CB8
:4060400000257CE53D436F1EBD410027EDB283E7171C019D024CD7E4171C019DD4E4C046FF070000FFFF7FFF54463B1C203CE3401C1C5346202B0DD0402351465B1A9F40BD
:406080003D436F1EBD410027254365E70027CDE70D1CC8E50027F3E70B0330B5134C1A0B4B00051C5B0DC90F0020A34210DD104883420EDC80200F4C40030243E41A1F2C60
:4060C0000ADD0D48C31ADA40131C48424340581830BD0A4BC818FBE7281CE040084CA44663449A40131C0343EFE7C046FE0300001D0400003304000013040000FFFFFF7F5D
:40610000EDFBFFFF38B5041E16D0C50F00D04442201C00F065F8174B1B1A0A2821DC021C211C153291400A1C0B21081AC4405B052403240B5B0D03E0002500230024002291
:406140000021101C24030A0D1205240B14430A4A1B0514401C436400ED0764082C43211C38BD0B3884405B052403240B5B0D0022E6E7C0461E040000FFFF0F8010B5041EBB
:4061800010D000F02DF8144A121A0A281ADC0B23211C1B1AD94015300B03520584401B0B520D01E00022002300211B03201C1C0B0B0D1B052343094C1205234013435B00A6
:4061C000590810BD031C0B3B9C40520523031B0B520D0024E8E7C0461E040000FFFF0F801C2101231B04984201D3000C10391B0A984201D3000A08391B09984201D300090A
:40620000043902A2105C40187047C04604030202010101010000000000000000014B18687047C046D41000200E4B70B500251E1C0D4CE41AA410A54204D0AB00F3589847E8
:406240000135F8E711F04AFC084B00251E1C084CE41AA410A54204D0AB00F35898470135F8E770BDE87A0100E87A0100E87A0100F07A010030B50024944208D0035D651C0C
:406280000C5DA34201D0181B02E02C1CF4E7002030BD002310B5934203D0CC5CC4540133F9E710BD031C8218934202D019700133FAE77047134A1088810703D08107890FA4
:4062C000401A001D11791030484381B25088820703D08207920F801A001D800040180A494030098980B2CA0701D0503080B2890706D504495422091F09785143081880B21A
:40630000704700008E0D00207811002010B501F0F9FE10BD10B501F00BFF10BD10B500F04FFA10BD10B50749044609780220002907D1204601F04CFF002802D120460AF070
:4063400083FB10BDF80E002070B504460120002C12D02368002B0FD0616800290CD0074D06222889208118462968FFF792FF6968606809780170002070BD000078110020E6
:40638000FFB585B0002768460E9D07734C481C460078002802D0082009B0F0BD10990F9801900095029105A807C800F0FBF80028F2D16946264603AB84460873002C19D08E
:4063C000002115E08A00B75A082F09D990198078002805D0083FB7521878401C187005E0002915D00027B75290198770491CC9B2A942E7D360460028CED10F9800280AD013
:40640000109901F033FA0006000E04D00120C3E701208446EEE701F08BFE2948002101610C300599016021888180022D03D3A1798171A17AC17100211EE0481C19E0820073
:406440008B00A75AE65ABE46BE4211D26F463E80B4461E190296B678BE7001967646E6521719029EBB78B3706646A652019EBE70401CA842E3D3491CA942DED311480090C9
:406480006846037B22460799069800F013F9002882D168460A4C007B60700A4801F078FE0028B4D1204607490C3007F02DFA0028ADD107F047FA0028A9D1012121706BE749
:4064C000880D002078110020F8B5054633480E460078002802D002242046F8BD002E5BD000242F49002D16D02A89D0070DD02868002808D003881B3BE12B04D24088FB2817
:4065000001D81B2801D2012409E0900707D56868002804D1F7E70020088108604860002CDAD11F482F8907811C481B21801D018041800421017119490020891C0870F80755
:4065400005D016480622801D2968FFF7A2FE1449B80703D56A681148127882700F480D46801D0860001F486001F058FE0B48801D01F046FE28890DF05DFA28890DF0C4FB0D
:4065800003461033FFF796FE1F21C018890140180249308088809FE701249DE7880D002078110020FFB58446384F1C460020BB883F78054602460646002F11D100290ED0C3
:4065C000029999420BD36146002908D0002C06D00A99002906D02E4B0B99994202D2012004B0F0BD002144E0AB001F19BF78002F3BD0E35A002B38D07B43591889B22B000F
:4066000000F04AF8050410161C253100A7782388BC46FF27233BEB37BB4222D26346032B1FD322E0A388002B1FD0302B19D31CE02389002B19D0282B13D316E0A289002A8D
:4066400013D01346134F233BBB420AD20DE0268A002A0AD033460F4F233BBB4201D2964203D901200EE0002001E000280AD16D1CEDB2099B9D42B7D31C2463435B180299AF
:406680008B42ACD89642AAD8AAE70000880D002079020000BAFF000030B47446641E2578641CAB4200D21D46635D5B00E31830BC18470000FFB583B0002469460C801F464A
:4066C00006468C80002806D00598002803D004983043800701D0012467E0002FFBD03449049809888842F6D3FDF79EFCFDF786FC00F010FC002856D100F06CFD002852D1AF
:406700002C49084601F0E6F805042D0C4BD12A480499066081800021C18007810C98007AC00704D0684601F01CFD040007D10C98007A800703D501A801F01CFD0446BF1D66
:40674000FEB2002C21D13146059800F05DF804001BD10DF0E7FA0406240E16D16A461088928808368518144AF1B29088D288AEB29319984207D3401B801A80B201F09AFBE4
:40678000050007D000E0FF25012400F05BFA002D04D008E0F8B200F01BF9F6E700F07EFA06490120087000F0C7FB204607B0F0BD8C0D0020F5680000841100209C0D0020BB
:4067C00010B503480078012801D101F015FA10BD9C0D002070B5084B0446DA889E8800205518B54206D81D68AA182260DA885118D98070BD032070BD8411002001480089E3
:406800007047000084110020F0B587B007460D4600208900009006916846FFF7DBFF844600285DD1304800990160002117E02E4B88001A680629115406D22C4C0419667816
:4068400082185670628805E0C419203CA67A8218567022891B68C018491C4280C9B2A942E5D300242DE0601CC2B2059025E01E4FA3003968960058184088711803960490F5
:406880004E88B04217D938466F46FE80B6464F786E4677710297049F4F800168039F5E18767879184E700168764659184E800068029F18184770521CD2B2AA42D7D30598CE
:4068C000C4B2AC42CFD36046002809D168460699FFF780FF8446002802D1054900980860604607B0F0BD0000A00D0020107B0100A40D00207047000010B5002809D0054916
:406900004A68002A05D0011F08788000105801F07FFA10BDA00D002010B50446FFF76EFFC0B2801DA0420CD307484068002808D0A100405801F0DEF9002801D00470001D56
:4069400010BD002010BD0000A00D0020F8B516460D460446FFF752FFC0B2801DA04203D20020C0430090F8BDB2B2E9B2684601F0E7F90099481C03D0024AA0005268115020
:406980000098F8BDA00D0020F8B50746FFF736FF801DC6B20A49002005460C680DE06178002907D06188B94202D32078FFF7B4FF002804D1241D6D1CEDB2B542EFD3F8BDBD
:4069C000A00D002010B5002801D0FFF795FF10BD70B506460948002504680BE06178002905D062882078121D0023FFF7AFFF241D6D1CEDB2B542F1D370BD0000A00D00200A
:406A0000FFB581B00A9C16002BD000F0F1F80546042826D0214F002C0BD02046FFF7B4FF2901C919486000281BD022460499FFF730FC1A4928010E504618748101980570B5
:406A40007D20029CC000444300F0C0F8009004280AD000F055FAA0420ED800F051FA201A06E0FF2005B0F0BD204600F0ADFA0020B08135720020F5E700F042FA074600F019
:406A8000B9FA381B87B23846012100F0EFF800980101024808188781E6E7000090110020F8B5060117483418217A042903D0A089002802D018E00020F8BD00F021FA054646
:406AC00000F098FA00F0A2F804280DD001010D480F18B88941198DB2002100F0C7F80020B881284600F070FA6068064D002801D0FFF768FF042020720020A8516081A081F6
:406B0000D9E7000090110020FEB500266A46304601232549050169180D7A042D02D0898900291BD000211154401CC0B20428F0D300246846005D002830D01B4821010818CD
:406B400041894768056802910021016041600422418102728181002E02D015E01354E3E700F054F804280ED001010F480818019086890021304600F079F8019800218181E2
:406B8000304600F021FA0126002D07D038460299A847002F02D03846FFF714FF641CE4B2042CC6D3FEBD0000901100200EB5002005216A4600901181508103486946006830
:406BC0000DF025FF0EBD0000A80D0020074A0020010189180B7A042B02D08989002903D0401CC0B20428F3D370470000901100200549002002015218127A042A03D0401C30
:406C0000C0B20428F6D370479011002030B50A4B04200A4C00210A011219157A042D06D09289002A03D09A4201D808461346491CC9B20429EFD330BDFFFF000090110020E5
:406C40007047000030B50020074C05460423020111190B72A5504D60401C4D81C0B28D810428F4D330BD00009011002030B5094C00231A011219157A042D04D0958900297E
:406C800006D02D1895815B1CDBB2042BF1D330BD2D1AF7E790110020002070471CB5002469460C70142001902346054A05480DF0B3FE04480068401C00D1FF2420461CBD27
:406CC000196D0000A80D00203EB5124A0146FF2000230124126800290DD0012914D0042908D104206946009308814B8110460DF08EFE80B23EBD68460093048143816946A8
:406D000010460DF07FFEF4E768460093048143816946EBE7A80D002070B545890468416800890300FFF7B8FC08280509091E22282628002005F0FAFC1EE0022908D0C8B207
:406D40002A4621460CF026F82046FFF73BFE13E002202A4621460CF01DF82946204600F00DF809E000200DF041FB05E02046FFF7CBFE01E0FDF7D6F9002070BD014B00221B
:406D8000DB681847AC0D002070B5448905680089022803D0032809D0FF2070BD2246094C0023A46829460120A04708E0FFF7B2FA241DA2B200232946022006F056FC002085
:406DC00070BD0000AC0D002070470000024800214160018041807047AC0D002070B50C46002186B016460391012802D0022859D116E003A9012006F098FC01281BD1039DE9
:406E0000324621462846FFF744FA0095287801900220694608814E816846FFF7B5FF41E0214D002B686809D0049004A9022006F07CFC01281DD0022006B070BD002812D031
:406E4000298840182146FFF724FA28880024801980B228806988091D884206D12C801348FFF792FF03E00320E6E788421AD96C6018E004986860E278A378110219430B4A10
:406E8000698000231060E3565360032313815181A1788170E178C1706178417021780170042028800020C7E7AC0D0020D01100203EB515460C46022803D004280CD000207D
:406EC0003EBD0091019002206946088107484A8100680DF09CFD07E00BF05CFF044B0022DB6829462046984701203EBDA80D0020AC0D0020014AD16090607047AC0D002098
:406F0000034801688068081A0A21484300097047DC11002010B5FDF777F8482204490548FFF7B7F903490120C870002010BD00002C7B0100E015002010B5FDF759F810BD18
:406F400070B5134C2368002B08D0207B1149C20705D04008400020738868A08070BD88680B4AA18880B29268814203D90A4D691A091802E0814202D2411A5118A160A08082
:406F8000A0689842EAD30DF05FFD00F013F870BDDC110020C0102E40FFFF000010B508461946FFF7A7FF10BD704710B5FFF780FF10BD000003480021016041608160C1605F
:406FC00070470000DC110020024610B5FF20002A0CD0FFF7EFFF064C0321207B0843207310010A21FDF786F92060002010BD0000DC11002000B504480A21806848430209F5
:40700000FFF7D8FF104600BDDC1100200248007B8007C00F70470000DC11002010B544490868002802DA434B01221A70022290430860414800693E49C00B4031096A0842B2
:407040005ED0012000F0D0FA3B483C497C30FCF7E9FE37480E216C30FCF7E4FE364820218430FCF7DFFE344814219C30FCF7DAFE3148FF21C131A430FCF7D4FE2E48FF2115
:407080002F31B030FCF7CEFE2B482D49BC30FCF7C9FE29482B49AC30FCF7C4FE29492648491CB430FCF7BEFE23482749B830FCF7B9FE21482549CC30FCF7B4FE1E4824493C
:4070C0000830FCF7AFFE1C482249A830FCF7AAFE194821498830FCF7A5FE17481F498C30FCF7A0FE14481921C9029030FCF79AFEFCF7A6FEFCF7A2FFC0B2022802D00FE015
:40710000FF2010BD16491748FCF78CFE15481649001DFCF787FE134800210830FCF782FE54200449C043891C0870002010BD000000F02E40BC0D002000002E405565000073
:40714000320300002F3F00003102000010520000EC160000FA12000031D000003AE300009956000080012E40F80F000070B50646581C80B245086D00002408E0304600F083
:40718000C1F81055000A1119A41C4870A4B2AC42F4D3D80705D0D0182038D15CC47FD454C17770BD30B50A4C002100195B1E07E0541864782502545C2C430480891C89B242
:4071C0009942F5DB994201D1515C018030BD000000102E4010B5FF2000F006FA0F49FF2048700E481021801D41800121417001700A490020C91C4870FFF710FF04000AD17E
:4072000000F01AF907210648FCF7FEFD044807211830FCF7F9FD204610BD0000BC0D0020CC112E4070B5002405465B1E0AE0284600F068F8010A161971702D1D1055A41C9C
